{"contracts/MockV3Aggregator.sol":{"MockV3Aggregator":{"abi":[{"inputs":[{"internalType":"uint8","name":"_decimals","type":"uint8"},{"internalType":"int256","name":"_initialAnswer","type":"int256"}],"stateMutability":"nonpayable","type":"constructor"},{"inputs":[],"name":"decimals","outputs":[{"internalType":"uint8","name":"","type":"uint8"}],"stateMutability":"view","type":"function"},{"inputs":[{"internalType":"uint256","name":"","type":"uint256"}],"name":"getAnswer","outputs":[{"internalType":"int256","name":"","type":"int256"}],"stateMutability":"view","type":"function"},{"inputs":[{"internalType":"uint256","name":"","type":"uint256"}],"name":"getTimestamp","outputs":[{"internalType":"uint256","name":"","type":"uint256"}],"stateMutability":"view","type":"function"},{"inputs":[],"name":"latestAnswer","outputs":[{"internalType":"int256","name":"","type":"int256"}],"stateMutability":"view","type":"function"},{"inputs":[],"name":"latestRound","outputs":[{"internalType":"uint256","name":"","type":"uint256"}],"stateMutability":"view","type":"function"},{"inputs":[],"name":"latestRoundData","outputs":[{"internalType":"uint80","name":"roundId","type":"uint80"},{"internalType":"int256","name":"answer","type":"int256"},{"internalType":"uint256","name":"startedAt","type":"uint256"},{"internalType":"uint256","name":"updatedAt","type":"uint256"},{"internalType":"uint80","name":"answeredInRound","type":"uint80"}],"stateMutability":"view","type":"function"},{"inputs":[],"name":"latestTimestamp","outputs":[{"internalType":"uint256","name":"","type":"uint256"}],"stateMutability":"view","type":"function"},{"inputs":[{"internalType":"int256","name":"_answer","type":"int256"}],"name":"updateAnswer","outputs":[],"stateMutability":"nonpayable","type":"function"}],"evm":{"bytecode":{"linkReferences":{},"object":"608060405234801561001057600080fd5b506040516107403803806107408339818101604052810190610032919061014d565b816000806101000a81548160ff021916908360ff16021790555061005b8161006260201b60201c565b505061020e565b806001819055504260028190555060036000815480929190610083906101c6565b919050555080600460006003548152602001908152602001600020819055504260056000600354815260200190815260200160002081905550426006600060035481526020019081526020016000208190555050565b600080fd5b600060ff82169050919050565b6100f4816100de565b81146100ff57600080fd5b50565b600081519050610111816100eb565b92915050565b6000819050919050565b61012a81610117565b811461013557600080fd5b50565b60008151905061014781610121565b92915050565b60008060408385031215610164576101636100d9565b5b600061017285828601610102565b925050602061018385828601610138565b9150509250929050565b7f4e487b7100000000000000000000000000000000000000000000000000000000600052601160045260246000fd5b6000819050919050565b60006101d1826101bc565b91507fffffffffffffffffffffffffffffffffffffffffffffffffffffffffffffffff82036102035761020261018d565b5b600182019050919050565b6105238061021d6000396000f3fe608060405234801561001057600080fd5b50600436106100885760003560e01c8063a87a20ce1161005b578063a87a20ce14610105578063b5ab58dc14610121578063b633620c14610151578063feaf968c1461018157610088565b8063313ce5671461008d57806350d25bcd146100ab578063668a0f02146100c95780638205bf6a146100e7575b600080fd5b6100956101a3565b6040516100a291906102c4565b60405180910390f35b6100b36101b4565b6040516100c091906102f8565b60405180910390f35b6100d16101ba565b6040516100de919061032c565b60405180910390f35b6100ef6101c0565b6040516100fc919061032c565b60405180910390f35b61011f600480360381019061011a9190610378565b6101c6565b005b61013b600480360381019061013691906103d1565b61023d565b60405161014891906102f8565b60405180910390f35b61016b600480360381019061016691906103d1565b610255565b604051610178919061032c565b60405180910390f35b61018961026d565b60405161019a959493929190610423565b60405180910390f35b60008054906101000a900460ff1681565b60015481565b60035481565b60025481565b8060018190555042600281905550600360008154809291906101e7906104a5565b919050555080600460006003548152602001908152602001600020819055504260056000600354815260200190815260200160002081905550426006600060035481526020019081526020016000208190555050565b60046020528060005260406000206000915090505481565b60056020528060005260406000206000915090505481565b600080600080600060035460015460066000600354815260200190815260200160002054600254600354945094509450945094509091929394565b600060ff82169050919050565b6102be816102a8565b82525050565b60006020820190506102d960008301846102b5565b92915050565b6000819050919050565b6102f2816102df565b82525050565b600060208201905061030d60008301846102e9565b92915050565b6000819050919050565b61032681610313565b82525050565b6000602082019050610341600083018461031d565b92915050565b600080fd5b610355816102df565b811461036057600080fd5b50565b6000813590506103728161034c565b92915050565b60006020828403121561038e5761038d610347565b5b600061039c84828501610363565b91505092915050565b6103ae81610313565b81146103b957600080fd5b50565b6000813590506103cb816103a5565b92915050565b6000602082840312156103e7576103e6610347565b5b60006103f5848285016103bc565b91505092915050565b600069ffffffffffffffffffff82169050919050565b61041d816103fe565b82525050565b600060a0820190506104386000830188610414565b61044560208301876102e9565b610452604083018661031d565b61045f606083018561031d565b61046c6080830184610414565b9695505050505050565b7f4e487b7100000000000000000000000000000000000000000000000000000000600052601160045260246000fd5b60006104b082610313565b91507fffffffffffffffffffffffffffffffffffffffffffffffffffffffffffffffff82036104e2576104e1610476565b5b60018201905091905056fea264697066735822122071d98bf090d6cbebec6ae9e48e35497dfa51f0ab8c8a80921ed019853d31e40264736f6c63430008140033","opcodes":"PUSH1 0x80 PUSH1 0x40 MSTORE CALLVALUE DUP1 ISZERO PUSH2 0x10 JUMPI PUSH1 0x0 DUP1 REVERT JUMPDEST POP PUSH1 0x40 MLOAD PUSH2 0x740 CODESIZE SUB DUP1 PUSH2 0x740 DUP4 CODECOPY DUP2 DUP2 ADD PUSH1 0x40 MSTORE DUP2 ADD SWAP1 PUSH2 0x32 SWAP2 SWAP1 PUSH2 0x14D JUMP JUMPDEST DUP2 PUSH1 0x0 DUP1 PUSH2 0x100 EXP DUP2 SLOAD DUP2 PUSH1 0xFF MUL NOT AND SWAP1 DUP4 PUSH1 0xFF AND MUL OR SWAP1 SSTORE POP PUSH2 0x5B DUP2 PUSH2 0x62 PUSH1 0x20 SHL PUSH1 0x20 SHR JUMP JUMPDEST POP POP PUSH2 0x20E JUMP JUMPDEST DUP1 PUSH1 0x1 DUP2 SWAP1 SSTORE POP TIMESTAMP PUSH1 0x2 DUP2 SWAP1 SSTORE POP PUSH1 0x3 PUSH1 0x0 DUP2 SLOAD DUP1 SWAP3 SWAP2 SWAP1 PUSH2 0x83 SWAP1 PUSH2 0x1C6 JUMP JUMPDEST SWAP2 SWAP1 POP SSTORE POP DUP1 PUSH1 0x4 PUSH1 0x0 PUSH1 0x3 SLOAD DUP2 MSTORE PUSH1 0x20 ADD SWAP1 DUP2 MSTORE PUSH1 0x20 ADD PUSH1 0x0 KECCAK256 DUP2 SWAP1 SSTORE POP TIMESTAMP PUSH1 0x5 PUSH1 0x0 PUSH1 0x3 SLOAD DUP2 MSTORE PUSH1 0x20 ADD SWAP1 DUP2 MSTORE PUSH1 0x20 ADD PUSH1 0x0 KECCAK256 DUP2 SWAP1 SSTORE POP TIMESTAMP PUSH1 0x6 PUSH1 0x0 PUSH1 0x3 SLOAD DUP2 MSTORE PUSH1 0x20 ADD SWAP1 DUP2 MSTORE PUSH1 0x20 ADD PUSH1 0x0 KECCAK256 DUP2 SWAP1 SSTORE POP POP JUMP JUMPDEST PUSH1 0x0 DUP1 REVERT JUMPDEST PUSH1 0x0 PUSH1 0xFF DUP3 AND SWAP1 POP SWAP2 SWAP1 POP JUMP JUMPDEST PUSH2 0xF4 DUP2 PUSH2 0xDE JUMP JUMPDEST DUP2 EQ PUSH2 0xFF JUMPI PUSH1 0x0 DUP1 REVERT JUMPDEST POP JUMP JUMPDEST PUSH1 0x0 DUP2 MLOAD SWAP1 POP PUSH2 0x111 DUP2 PUSH2 0xEB JUMP JUMPDEST SWAP3 SWAP2 POP POP JUMP JUMPDEST PUSH1 0x0 DUP2 SWAP1 POP SWAP2 SWAP1 POP JUMP JUMPDEST PUSH2 0x12A DUP2 PUSH2 0x117 JUMP JUMPDEST DUP2 EQ PUSH2 0x135 JUMPI PUSH1 0x0 DUP1 REVERT JUMPDEST POP JUMP JUMPDEST PUSH1 0x0 DUP2 MLOAD SWAP1 POP PUSH2 0x147 DUP2 PUSH2 0x121 JUMP JUMPDEST SWAP3 SWAP2 POP POP JUMP JUMPDEST PUSH1 0x0 DUP1 PUSH1 0x40 DUP4 DUP6 SUB SLT ISZERO PUSH2 0x164 JUMPI PUSH2 0x163 PUSH2 0xD9 JUMP JUMPDEST JUMPDEST PUSH1 0x0 PUSH2 0x172 DUP6 DUP3 DUP7 ADD PUSH2 0x102 JUMP JUMPDEST SWAP3 POP POP PUSH1 0x20 PUSH2 0x183 DUP6 DUP3 DUP7 ADD PUSH2 0x138 JUMP JUMPDEST SWAP2 POP POP SWAP3 POP SWAP3 SWAP1 POP JUMP JUMPDEST PUSH32 0x4E487B7100000000000000000000000000000000000000000000000000000000 PUSH1 0x0 MSTORE PUSH1 0x11 PUSH1 0x4 MSTORE PUSH1 0x24 PUSH1 0x0 REVERT JUMPDEST PUSH1 0x0 DUP2 SWAP1 POP SWAP2 SWAP1 POP JUMP JUMPDEST PUSH1 0x0 PUSH2 0x1D1 DUP3 PUSH2 0x1BC JUMP JUMPDEST SWAP2 POP PUSH32 0xFFFFFFFFFFFFFFFFFFFFFFFFFFFFFFFFFFFFFFFFFFFFFFFFFFFFFFFFFFFFFFFF DUP3 SUB PUSH2 0x203 JUMPI PUSH2 0x202 PUSH2 0x18D JUMP JUMPDEST JUMPDEST PUSH1 0x1 DUP3 ADD SWAP1 POP SWAP2 SWAP1 POP JUMP JUMPDEST PUSH2 0x523 DUP1 PUSH2 0x21D PUSH1 0x0 CODECOPY PUSH1 0x0 RETURN INVALID PUSH1 0x80 PUSH1 0x40 MSTORE CALLVALUE DUP1 ISZERO PUSH2 0x10 JUMPI PUSH1 0x0 DUP1 REVERT JUMPDEST POP PUSH1 0x4 CALLDATASIZE LT PUSH2 0x88 JUMPI PUSH1 0x0 CALLDATALOAD PUSH1 0xE0 SHR DUP1 PUSH4 0xA87A20CE GT PUSH2 0x5B JUMPI DUP1 PUSH4 0xA87A20CE EQ PUSH2 0x105 JUMPI DUP1 PUSH4 0xB5AB58DC EQ PUSH2 0x121 JUMPI DUP1 PUSH4 0xB633620C EQ PUSH2 0x151 JUMPI DUP1 PUSH4 0xFEAF968C EQ PUSH2 0x181 JUMPI PUSH2 0x88 JUMP JUMPDEST DUP1 PUSH4 0x313CE567 EQ PUSH2 0x8D JUMPI DUP1 PUSH4 0x50D25BCD EQ PUSH2 0xAB JUMPI DUP1 PUSH4 0x668A0F02 EQ PUSH2 0xC9 JUMPI DUP1 PUSH4 0x8205BF6A EQ PUSH2 0xE7 JUMPI JUMPDEST PUSH1 0x0 DUP1 REVERT JUMPDEST PUSH2 0x95 PUSH2 0x1A3 JUMP JUMPDEST PUSH1 0x40 MLOAD PUSH2 0xA2 SWAP2 SWAP1 PUSH2 0x2C4 JUMP JUMPDEST PUSH1 0x40 MLOAD DUP1 SWAP2 SUB SWAP1 RETURN JUMPDEST PUSH2 0xB3 PUSH2 0x1B4 JUMP JUMPDEST PUSH1 0x40 MLOAD PUSH2 0xC0 SWAP2 SWAP1 PUSH2 0x2F8 JUMP JUMPDEST PUSH1 0x40 MLOAD DUP1 SWAP2 SUB SWAP1 RETURN JUMPDEST PUSH2 0xD1 PUSH2 0x1BA JUMP JUMPDEST PUSH1 0x40 MLOAD PUSH2 0xDE SWAP2 SWAP1 PUSH2 0x32C JUMP JUMPDEST PUSH1 0x40 MLOAD DUP1 SWAP2 SUB SWAP1 RETURN JUMPDEST PUSH2 0xEF PUSH2 0x1C0 JUMP JUMPDEST PUSH1 0x40 MLOAD PUSH2 0xFC SWAP2 SWAP1 PUSH2 0x32C JUMP JUMPDEST PUSH1 0x40 MLOAD DUP1 SWAP2 SUB SWAP1 RETURN JUMPDEST PUSH2 0x11F PUSH1 0x4 DUP1 CALLDATASIZE SUB DUP2 ADD SWAP1 PUSH2 0x11A SWAP2 SWAP1 PUSH2 0x378 JUMP JUMPDEST PUSH2 0x1C6 JUMP JUMPDEST STOP JUMPDEST PUSH2 0x13B PUSH1 0x4 DUP1 CALLDATASIZE SUB DUP2 ADD SWAP1 PUSH2 0x136 SWAP2 SWAP1 PUSH2 0x3D1 JUMP JUMPDEST PUSH2 0x23D JUMP JUMPDEST PUSH1 0x40 MLOAD PUSH2 0x148 SWAP2 SWAP1 PUSH2 0x2F8 JUMP JUMPDEST PUSH1 0x40 MLOAD DUP1 SWAP2 SUB SWAP1 RETURN JUMPDEST PUSH2 0x16B PUSH1 0x4 DUP1 CALLDATASIZE SUB DUP2 ADD SWAP1 PUSH2 0x166 SWAP2 SWAP1 PUSH2 0x3D1 JUMP JUMPDEST PUSH2 0x255 JUMP JUMPDEST PUSH1 0x40 MLOAD PUSH2 0x178 SWAP2 SWAP1 PUSH2 0x32C JUMP JUMPDEST PUSH1 0x40 MLOAD DUP1 SWAP2 SUB SWAP1 RETURN JUMPDEST PUSH2 0x189 PUSH2 0x26D JUMP JUMPDEST PUSH1 0x40 MLOAD PUSH2 0x19A SWAP6 SWAP5 SWAP4 SWAP3 SWAP2 SWAP1 PUSH2 0x423 JUMP JUMPDEST PUSH1 0x40 MLOAD DUP1 SWAP2 SUB SWAP1 RETURN JUMPDEST PUSH1 0x0 DUP1 SLOAD SWAP1 PUSH2 0x100 EXP SWAP1 DIV PUSH1 0xFF AND DUP2 JUMP JUMPDEST PUSH1 0x1 SLOAD DUP2 JUMP JUMPDEST PUSH1 0x3 SLOAD DUP2 JUMP JUMPDEST PUSH1 0x2 SLOAD DUP2 JUMP JUMPDEST DUP1 PUSH1 0x1 DUP2 SWAP1 SSTORE POP TIMESTAMP PUSH1 0x2 DUP2 SWAP1 SSTORE POP PUSH1 0x3 PUSH1 0x0 DUP2 SLOAD DUP1 SWAP3 SWAP2 SWAP1 PUSH2 0x1E7 SWAP1 PUSH2 0x4A5 JUMP JUMPDEST SWAP2 SWAP1 POP SSTORE POP DUP1 PUSH1 0x4 PUSH1 0x0 PUSH1 0x3 SLOAD DUP2 MSTORE PUSH1 0x20 ADD SWAP1 DUP2 MSTORE PUSH1 0x20 ADD PUSH1 0x0 KECCAK256 DUP2 SWAP1 SSTORE POP TIMESTAMP PUSH1 0x5 PUSH1 0x0 PUSH1 0x3 SLOAD DUP2 MSTORE PUSH1 0x20 ADD SWAP1 DUP2 MSTORE PUSH1 0x20 ADD PUSH1 0x0 KECCAK256 DUP2 SWAP1 SSTORE POP TIMESTAMP PUSH1 0x6 PUSH1 0x0 PUSH1 0x3 SLOAD DUP2 MSTORE PUSH1 0x20 ADD SWAP1 DUP2 MSTORE PUSH1 0x20 ADD PUSH1 0x0 KECCAK256 DUP2 SWAP1 SSTORE POP POP JUMP JUMPDEST PUSH1 0x4 PUSH1 0x20 MSTORE DUP1 PUSH1 0x0 MSTORE PUSH1 0x40 PUSH1 0x0 KECCAK256 PUSH1 0x0 SWAP2 POP SWAP1 POP SLOAD DUP2 JUMP JUMPDEST PUSH1 0x5 PUSH1 0x20 MSTORE DUP1 PUSH1 0x0 MSTORE PUSH1 0x40 PUSH1 0x0 KECCAK256 PUSH1 0x0 SWAP2 POP SWAP1 POP SLOAD DUP2 JUMP JUMPDEST PUSH1 0x0 DUP1 PUSH1 0x0 DUP1 PUSH1 0x0 PUSH1 0x3 SLOAD PUSH1 0x1 SLOAD PUSH1 0x6 PUSH1 0x0 PUSH1 0x3 SLOAD DUP2 MSTORE PUSH1 0x20 ADD SWAP1 DUP2 MSTORE PUSH1 0x20 ADD PUSH1 0x0 KECCAK256 SLOAD PUSH1 0x2 SLOAD PUSH1 0x3 SLOAD SWAP5 POP SWAP5 POP SWAP5 POP SWAP5 POP SWAP5 POP SWAP1 SWAP2 SWAP3 SWAP4 SWAP5 JUMP JUMPDEST PUSH1 0x0 PUSH1 0xFF DUP3 AND SWAP1 POP SWAP2 SWAP1 POP JUMP JUMPDEST PUSH2 0x2BE DUP2 PUSH2 0x2A8 JUMP JUMPDEST DUP3 MSTORE POP POP JUMP JUMPDEST PUSH1 0x0 PUSH1 0x20 DUP3 ADD SWAP1 POP PUSH2 0x2D9 PUSH1 0x0 DUP4 ADD DUP5 PUSH2 0x2B5 JUMP JUMPDEST SWAP3 SWAP2 POP POP JUMP JUMPDEST PUSH1 0x0 DUP2 SWAP1 POP SWAP2 SWAP1 POP JUMP JUMPDEST PUSH2 0x2F2 DUP2 PUSH2 0x2DF JUMP JUMPDEST DUP3 MSTORE POP POP JUMP JUMPDEST PUSH1 0x0 PUSH1 0x20 DUP3 ADD SWAP1 POP PUSH2 0x30D PUSH1 0x0 DUP4 ADD DUP5 PUSH2 0x2E9 JUMP JUMPDEST SWAP3 SWAP2 POP POP JUMP JUMPDEST PUSH1 0x0 DUP2 SWAP1 POP SWAP2 SWAP1 POP JUMP JUMPDEST PUSH2 0x326 DUP2 PUSH2 0x313 JUMP JUMPDEST DUP3 MSTORE POP POP JUMP JUMPDEST PUSH1 0x0 PUSH1 0x20 DUP3 ADD SWAP1 POP PUSH2 0x341 PUSH1 0x0 DUP4 ADD DUP5 PUSH2 0x31D JUMP JUMPDEST SWAP3 SWAP2 POP POP JUMP JUMPDEST PUSH1 0x0 DUP1 REVERT JUMPDEST PUSH2 0x355 DUP2 PUSH2 0x2DF JUMP JUMPDEST DUP2 EQ PUSH2 0x360 JUMPI PUSH1 0x0 DUP1 REVERT JUMPDEST POP JUMP JUMPDEST PUSH1 0x0 DUP2 CALLDATALOAD SWAP1 POP PUSH2 0x372 DUP2 PUSH2 0x34C JUMP JUMPDEST SWAP3 SWAP2 POP POP JUMP JUMPDEST PUSH1 0x0 PUSH1 0x20 DUP3 DUP5 SUB SLT ISZERO PUSH2 0x38E JUMPI PUSH2 0x38D PUSH2 0x347 JUMP JUMPDEST JUMPDEST PUSH1 0x0 PUSH2 0x39C DUP5 DUP3 DUP6 ADD PUSH2 0x363 JUMP JUMPDEST SWAP2 POP POP SWAP3 SWAP2 POP POP JUMP JUMPDEST PUSH2 0x3AE DUP2 PUSH2 0x313 JUMP JUMPDEST DUP2 EQ PUSH2 0x3B9 JUMPI PUSH1 0x0 DUP1 REVERT JUMPDEST POP JUMP JUMPDEST PUSH1 0x0 DUP2 CALLDATALOAD SWAP1 POP PUSH2 0x3CB DUP2 PUSH2 0x3A5 JUMP JUMPDEST SWAP3 SWAP2 POP POP JUMP JUMPDEST PUSH1 0x0 PUSH1 0x20 DUP3 DUP5 SUB SLT ISZERO PUSH2 0x3E7 JUMPI PUSH2 0x3E6 PUSH2 0x347 JUMP JUMPDEST JUMPDEST PUSH1 0x0 PUSH2 0x3F5 DUP5 DUP3 DUP6 ADD PUSH2 0x3BC JUMP JUMPDEST SWAP2 POP POP SWAP3 SWAP2 POP POP JUMP JUMPDEST PUSH1 0x0 PUSH10 0xFFFFFFFFFFFFFFFFFFFF DUP3 AND SWAP1 POP SWAP2 SWAP1 POP JUMP JUMPDEST PUSH2 0x41D DUP2 PUSH2 0x3FE JUMP JUMPDEST DUP3 MSTORE POP POP JUMP JUMPDEST PUSH1 0x0 PUSH1 0xA0 DUP3 ADD SWAP1 POP PUSH2 0x438 PUSH1 0x0 DUP4 ADD DUP9 PUSH2 0x414 JUMP JUMPDEST PUSH2 0x445 PUSH1 0x20 DUP4 ADD DUP8 PUSH2 0x2E9 JUMP JUMPDEST PUSH2 0x452 PUSH1 0x40 DUP4 ADD DUP7 PUSH2 0x31D JUMP JUMPDEST PUSH2 0x45F PUSH1 0x60 DUP4 ADD DUP6 PUSH2 0x31D JUMP JUMPDEST PUSH2 0x46C PUSH1 0x80 DUP4 ADD DUP5 PUSH2 0x414 JUMP JUMPDEST SWAP7 SWAP6 POP POP POP POP POP POP JUMP JUMPDEST PUSH32 0x4E487B7100000000000000000000000000000000000000000000000000000000 PUSH1 0x0 MSTORE PUSH1 0x11 PUSH1 0x4 MSTORE PUSH1 0x24 PUSH1 0x0 REVERT JUMPDEST PUSH1 0x0 PUSH2 0x4B0 DUP3 PUSH2 0x313 JUMP JUMPDEST SWAP2 POP PUSH32 0xFFFFFFFFFFFFFFFFFFFFFFFFFFFFFFFFFFFFFFFFFFFFFFFFFFFFFFFFFFFFFFFF DUP3 SUB PUSH2 0x4E2 JUMPI PUSH2 0x4E1 PUSH2 0x476 JUMP JUMPDEST JUMPDEST PUSH1 0x1 DUP3 ADD SWAP1 POP SWAP2 SWAP1 POP JUMP INVALID LOG2 PUSH5 0x6970667358 0x22 SLT KECCAK256 PUSH18 0xD98BF090D6CBEBEC6AE9E48E35497DFA51F0 0xAB DUP13 DUP11 DUP1 SWAP3 0x1E 0xD0 NOT DUP6 RETURNDATASIZE BALANCE 0xE4 MUL PUSH5 0x736F6C6343 STOP ADDMOD EQ STOP CALLER "},"methodIdentifiers":{"decimals()":"313ce567","getAnswer(uint256)":"b5ab58dc","getTimestamp(uint256)":"b633620c","latestAnswer()":"50d25bcd","latestRound()":"668a0f02","latestRoundData()":"feaf968c","latestTimestamp()":"8205bf6a","updateAnswer(int256)":"a87a20ce"}}}}}